:020000040000FA
:060000000A128A110E280D
:10000800FE00030EF6000408F7000A08F8000A12BA
:100018008A112E290A128A111128F901FA01FB0105
:10002800FC0183120313A001A101A201A301A401F1
:10003800A501A601A701A801A901AA01AB01AC016C
:10004800AD0183010A128A11EC29F2007B28C03025
:10005800F0007008F200B528F930F0007008F200DE
:10006800B528A430F0007008F200B528B030F000D0
:100078007008F200B5289930F0007008F200B52831
:100088009230F0007008F200B5288230F000700855
:10009800F200B528F830F0007008F200B52880307A
:1000A800F0007008F200B5289030F0007008F200F7
:1000B800B5288830F0007008F200B5288330F000C9
:1000C8007008F200B528C630F0007008F200B528B4
:1000D800A130F0007008F200B5288630F0007008F2
:1000E800F200B5288E30F0007008F200B5287208CA
:1000F800F000F1017108003A03198328B528700847
:10010800003A03192B28013A03193028033A031936
:100118003528013A03193A28073A03193F28013AC2
:1001280003194428033A03194928013A03194E28A8
:100138000F3A03195328013A03195828033A0319A7
:100148005D28013A03196228073A03196728013A1A
:1001580003196C28033A03197128013A0319762800
:10016800B5287208080083120313B0000B29831600
:1001780003130F178F160F168F110F158F100F14EB
:100188002D29831603130F178F160F128F110F15B2
:100198008F100F142D29831603130F178F120F16A4
:1001A8008F110F158F100F142D29831603130F1796
:1001B8008F120F128F110F158F100F142D29831600
:1001C80003130F138F160F168F110F158F100F149F
:1001D8002D29831603130F138F160F128F110F1566
:1001E8008F100F142D29831603130F138F120F1658
:1001F8008F110F158F100F142D29831603130F134A
:100208008F120F128F110F118F140F142D29300810
:10021800AE00AF012F08003A031913292D292E0823
:10022800003A0319BB28013A0319C528033A0319F0
:10023800CF28013A0319D928073A0319E328013AC4
:100248000319ED28033A0319F728013A031901297C
:100258002D2908000B1D3129322941298B138312BE
:100268000313071F382939293B2907134029071B7E
:100278003E293F29402907178B1783120313061CB1
:10028800462947295C298B130130A8000030A900B2
:1002980006184F2950295C2928032904031D5529CC
:1002A80056295C2901308502A801A9018B108B17FA
:1002B8000C1F5F2960298E298B131E080F39F30044
:1002C800F4017308AC007408AD002C080A128A11F6
:1002D80029200A128A1183120313880007131E08A3
:1002E800F30004300310F30CFF3E031D7629730856
:1002F800F400F5017408AA007508AB002A080A1270
:100308008A1129200A128A118312031388000717F9
:100318000C138B1778088A0077088400760E830000
:10032800FE0E7E0E090083120313B000B7299F1238
:10033800EB299F12EB299F12EB299F12EB299F12A1
:10034800EB299F12EB299F12EB299F12EB299F168D
:10035800EB299F16EB299F16EB299F16EB299F1671
:10036800EB299F16EB293008AE00AF012F08003AA1
:100378000319BF29EB292E08003A03199B29013AD2
:1003880003199D29033A03199F29013A0319A12941
:10039800073A0319A329013A0319A529033A0319AE
:1003A800A729013A0319A9290F3A0319AB29013AD8
:1003B8000319AD29033A0319AF29013A0319B129E1
:1003C800073A0319B329013A0319B529EB2908009B
:1003D8000A128A119D220A128A110A128A11CA2245
:1003E8000A128A1101300A128A11B7200A128A11D8
:1003F8000A128A11C0220A128A110B300A128A11B3
:1004080097210A128A1101300A128A117E220A12D1
:100418008A110A128A11B1220A128A11831203134D
:100428009F18172A182A192A9F14861C1C2A1D2A65
:100438002B2A0130A6000030A7008618242A252A76
:100448002B2A0130B10031088507A601A70105084C
:100458001E06031D302A312A122A07140A128A118D
:100468003B220A128A11122A0A128A110E28FB014B
:10047800FC01831203132508AF002408AE002E08E0
:10048800A4070318A50A2F08A507F901FA01831282
:1004980003132308AF002208AE002E08A207031892
:1004A800A30A2F08A3070130F9070318FA0A003036
:1004B800FA077A08803AFF0080307F02031D662A17
:1004C8001A307902031C692A6A2A4B2A0130FB0771
:1004D8000318FC0A0030FC077C08803AFF008030D3
:1004E8007F02031D792A1A307B02031C7C2A7D2A8D
:1004F8003D2A080083120313B000892A9F131F1393
:100508009F131F179F171F139C2A3008AE00AF01B7
:100518002F08003A0319912A9C2A2E08003A031939
:10052800822A013A0319842A023A0319862A9C2A44
:10053800080083160313850113308600870188019C
:10054800103083160317880089018312031385016D
:1005580086018701FF3088000800831603130117FE
:1005680001128111011581140110B1308312031396
:1005780081008B160B110800831203131F148316B6
:1005880003139F139F121F120C1708008B170B17CA
:0C059800831603130C17023096000800B5
:04400E00D4E0FFFFFC
:00000001FF
