:020000040000FA
:060000000A128A11122809
:10000800FE00030EF6000408F7000A08F800831241
:1000180003137F08F9000A128A11BB280A128A11F1
:100028001528FA01FB01FC01FD0183120313A0014D
:10003800A101A201A301A401A501A601A701A8018C
:10004800A901AA01AB01AC01AD0183010A128A1111
:10005800842AF2007F28C030F0007008F200B92826
:10006800F930F0007008F200B928A430F0007008E8
:10007800F200B928B030F0007008F200B9289930C1
:10008800F0007008F200B9289230F0007008F20011
:10009800B9288230F0007008F200B928F830F00072
:1000A8007008F200B9288030F0007008F200B92812
:1000B8009030F0007008F200B9288830F00070081D
:1000C800F200B9288330F0007008F200B928C63071
:1000D800F0007008F200B928A130F0007008F200B2
:1000E800B9288630F0007008F200B9288E30F00088
:1000F8007008F200B9287208F000F1017108003A9E
:1001080003198728B9287008003A03192F28013ADB
:1001180003193428033A03193928013A03193E28E8
:10012800073A03194328013A03194828033A0319DF
:100138004D28013A031952280F3A03195728013A52
:1001480003195C28033A03196128013A0319662840
:10015800073A03196B28013A03197028033A03195F
:100168007528013A03197A28B928720808000B1D66
:10017800BE28BF28E8288B13071FC328C428CB280C
:1001880007130A128A113D220A128A11D128071B65
:10019800CE28CF28D1280717C5288B17E8288B1316
:1001A8000130A8000030A9000618DB28DC28E82860
:1001B80028032904031DE128E228E82801308502E4
:1001C800A801A9018B108B17831203130618ED28B9
:1001D800EE28D32806298B130130A6000030A7008B
:1001E8008618F728F828062926032704031DFD2862
:1001F800FE2806290130F30073088507A601A70128
:100208008B108B17861809290A29EF280C1F0D292E
:100218000E293C298B131E080F39F300F4017308CB
:10022800AC007408AD002C080A128A112D200A129D
:100238008A1183120313880007131E08F300043081
:100248000310F30CFF3E031D24297308F400F50185
:100258007408AA007508AB002A080A128A112D2012
:100268000A128A1183120313880007170C138B17BD
:100278007908FF0078088A0077088400760E8300E2
:10028800FE0E7E0E090083120313B00091299F12FF
:100298001F129F111F11C5299F121F129F111F1591
:1002A800C5299F121F129F151F11C5299F121F12C2
:1002B8009F151F15C5299F121F169F111F11C529AC
:1002C8009F121F169F111F15C5299F121F169F15D4
:1002D8001F11C5299F121F169F151F15C5299F1687
:1002E8001F129F111F11C5299F161F129F111F153D
:1002F800C5299F161F129F151F11C5299F161F126A
:100308009F151F15C5299F161F169F111F11C52957
:100318009F161F169F111F15C5293008AE00AF0183
:100328002F08003A03199929C5292E08003A0319FC
:100338004B29013A03195029033A03195529013A5F
:1003480003195A29073A03195F29013A031964293D
:10035800033A03196929013A03196E290F3A031957
:100368007329013A03197829033A03197D29013AB7
:1003780003198229073A03198729013A03198C2995
:10038800C529080083120313B0001A2A8316031321
:100398000F178F160F168F110F158F100F143C2A79
:1003A800831603130F178F160F128F110F158F1047
:1003B8000F143C2A831603130F178F120F168F1171
:1003C8000F158F100F143C2A831603130F178F1263
:1003D8000F128F110F158F100F143C2A8316031359
:1003E8000F138F160F168F110F158F100F143C2A2D
:1003F800831603130F138F160F128F110F158F10FB
:100408000F143C2A831603130F138F120F168F1124
:100418000F158F100F143C2A831603130F138F1216
:100428000F128F110F118F140F143C2A3008AE00D1
:10043800AF012F08003A0319222A3C2A2E08003A55
:100448000319CA29013A0319D429033A0319DE29E1
:10045800013A0319E829073A0319F229013A03195D
:10046800FC29033A0319062A013A0319102A3C2ADF
:100478000800FC01FD017D08803AFF0080307F0202
:10048800031D482A97307C02031C4B2A4C2A4D2A0C
:10049800832A831203132508F1002408F00070084A
:1004A800A4070318A50A7108A507FA01FB017B0830
:1004B800803AFF0080307F02031D642A1A307A02D6
:1004C800031C672A682A692A7C2A831203132308D3
:1004D800F1002208F0007008A2070318A30A7108A7
:1004E800A3070130FA070318FB0A0030FB075B2A51
:1004F8000130FC070318FD0A0030FD073F2A0800F9
:100508000A128A11E7220A128A110A128A1115237D
:100518000A128A1101300A128A11C6210A128A1196
:100528000A128A110B230A128A110B300A128A1135
:1005380047210A128A1101300A128A11C6220A12A8
:100548008A110A128A11FC220A128A1183120313D1
:10055800071707139F18B12AB22AB32A9F14050850
:100568001E06031DB82AB92ABB2A0714AA2A050899
:100578001E060319C02AC12AAA2A0710AA2A0A1283
:100588008A11122883120313B000D32A9F131F1352
:10059800E62A9F131F17E62A9F171F13E62A30081B
:1005A800AE00AF012F08003A0319DB2AE62A2E080D
:1005B800003A0319CA2A013A0319CD2A033A031942
:1005C800D02AE62A08008316031385011330860013
:1005D80087018801103083160317880008308900C6
:1005E80083120313850186018701FF308800080004
:1005F80083160313011701128111011581140114C7
:1006080015308312031381008B160B110800831217
:1006180003131F14831603139F139F121F120C1723
:1006280008008B170B170230831603139600080077
:04400E00D4E0FFFFFC
:00000001FF
