:020000040000FA
:060000000A128A110E280D
:10000800FE00030EF6000408F7000A08F8000A12BA
:100018008A11B7280A128A111128F901FA01FB017D
:10002800FC0183120313A001A101A201A301A401F1
:10003800A501A601A701A801A901AA01AB01AC016C
:10004800AD0183010A128A11332AF2007B28C030DD
:10005800F0007008F200B528F930F0007008F200DE
:10006800B528A430F0007008F200B528B030F000D0
:100078007008F200B5289930F0007008F200B52831
:100088009230F0007008F200B5288230F000700855
:10009800F200B528F830F0007008F200B52880307A
:1000A800F0007008F200B5289030F0007008F200F7
:1000B800B5288830F0007008F200B5288330F000C9
:1000C8007008F200B528C630F0007008F200B528B4
:1000D800A130F0007008F200B5288630F0007008F2
:1000E800F200B5288E30F0007008F200B5287208CA
:1000F800F000F1017108003A03198328B528700847
:10010800003A03192B28013A03193028033A031936
:100118003528013A03193A28073A03193F28013AC2
:1001280003194428033A03194928013A03194E28A8
:100138000F3A03195328013A03195828033A0319A7
:100148005D28013A03196228073A03196728013A1A
:1001580003196C28033A03197128013A0319762800
:10016800B528720808000B1DBA28BB28E0288B1395
:1001780083120313071FC128C228C4280713C928DC
:10018800071BC728C828C92807178B17E0288B130F
:100198000130A8000030A9000618D328D428E02888
:1001A80028032904031DD928DA28E028013085020C
:1001B800A801A9018B108B17831203130618E528D1
:1001C800E628CB28FE288B130130A6000030A700B4
:1001D8008618EF28F028FE2826032704031DF52893
:1001E800F628FE280130F30073088507A601A70149
:1001F8008B108B17861801290229E7280C1F05295F
:10020800062934298B131E080F39F300F4017308EB
:10021800AC007408AD002C080A128A1129200A12B1
:100228008A1183120313880007131E08F300043091
:100238000310F30CFF3E031D1C297308F400F5019D
:100248007408AA007508AB002A080A128A11292026
:100258000A128A1183120313880007170C138B17CD
:1002680078088A0077088400760E8300FE0E7E0EDA
:10027800090083120313B00087299F121F129F11D0
:100288001F11BB299F121F129F111F15BB299F12F7
:100298001F129F151F11BB299F121F129F151F1593
:1002A800BB299F121F169F111F11BB299F121F16D2
:1002B8009F111F15BB299F121F169F151F11BB29C0
:1002C8009F121F169F151F15BB299F161F129F11DE
:1002D8001F11BB299F161F129F111F15BB299F169F
:1002E8001F129F151F11BB299F161F129F151F153F
:1002F800BB299F161F169F111F11BB299F161F167A
:100308009F111F15BB293008AE00AF012F08003A16
:1003180003198F29BB292E08003A03194129013AEC
:1003280003194629033A03194B29013A031950299D
:10033800073A03195529013A03195A29033A0319A7
:100348005F29013A031964290F3A03196929013A07
:1003580003196E29033A03197329013A03197829F5
:10036800073A03197D29013A03198229BB29080094
:1003780083120313B000102A831603130F178F1666
:100388000F168F110F158F100F14322A83160313AF
:100398000F178F160F128F110F158F100F14322A87
:1003A800831603130F178F120F168F110F158F1047
:1003B8000F14322A831603130F178F120F128F117F
:1003C8000F158F100F14322A831603130F138F166D
:1003D8000F168F110F158F100F14322A831603135F
:1003E8000F138F160F128F110F158F100F14322A3B
:1003F800831603130F138F120F168F110F158F10FB
:100408000F14322A831603130F138F120F128F1132
:100418000F118F140F14322A3008AE00AF012F08C5
:10042800003A0319182A322A2E08003A0319C0295B
:10043800013A0319CA29033A0319D429013A0319BD
:10044800DE29073A0319E829013A0319F229033A80
:100458000319FC29013A0319062A322A08000A124C
:100468008A1196220A128A110A128A11C4220A12C1
:100478008A1101300A128A11BC210A128A110A1241
:100488008A11BA220A128A110B300A128A113D21E6
:100498000A128A1101300A128A1175220A128A1167
:1004A8000A128A11AB220A128A1183120313071740
:1004B80007139F18602A612A622A9F1405081E06DE
:1004C800031D672A682A6A2A0714592A05081E067E
:1004D80003196F2A702A592A0710592A0A128A11F1
:1004E8000E2883120313B000822A9F131F13952A24
:1004F8009F131F17952A9F171F13952A3008AE00C0
:10050800AF012F08003A03198A2A952A2E08003AC3
:100518000319792A013A03197C2A033A03197F2A15
:10052800952A080083160313850113308600870176
:100538008801103083160317880008308900831259
:100548000313850186018701FF30880008008316A0
:1005580003130117011281110115811401141530BB
:100568008312031381008B160B11080083120313E7
:100578001F14831603139F139F121F120C170800D2
:0E0588008B170B170230831603139600080022
:04400E00D4E0FFFFFC
:00000001FF
